{
  "_format": "hh-sol-artifact-1",
  "contractName": "CommunityAdminImplementation",
  "sourceName": "contracts/community/CommunityAdminImplementation.sol",
  "abi": [
    {
      "anonymous": false,
      "inputs": [
        {
          "indexed": true,
          "internalType": "address",
          "name": "oldAmbassadors",
          "type": "address"
        },
        {
          "indexed": true,
          "internalType": "address",
          "name": "newAmbassadors",
          "type": "address"
        }
      ],
      "name": "AmbassadorsUpdated",
      "type": "event"
    },
    {
      "anonymous": false,
      "inputs": [
        {
          "indexed": true,
          "internalType": "address",
          "name": "communityAddress",
          "type": "address"
        },
        {
          "indexed": false,
          "internalType": "address[]",
          "name": "managers",
          "type": "address[]"
        },
        {
          "indexed": false,
          "internalType": "uint256",
          "name": "originalClaimAmount",
          "type": "uint256"
        },
        {
          "indexed": false,
          "internalType": "uint256",
          "name": "maxTotalClaim",
          "type": "uint256"
        },
        {
          "indexed": false,
          "internalType": "uint256",
          "name": "decreaseStep",
          "type": "uint256"
        },
        {
          "indexed": false,
          "internalType": "uint256",
          "name": "baseInterval",
          "type": "uint256"
        },
        {
          "indexed": false,
          "internalType": "uint256",
          "name": "incrementInterval",
          "type": "uint256"
        },
        {
          "indexed": false,
          "internalType": "uint256",
          "name": "minTranche",
          "type": "uint256"
        },
        {
          "indexed": false,
          "internalType": "uint256",
          "name": "maxTranche",
          "type": "uint256"
        }
      ],
      "name": "CommunityAdded",
      "type": "event"
    },
    {
      "anonymous": false,
      "inputs": [
        {
          "indexed": true,
          "internalType": "address",
          "name": "originalCommunity",
          "type": "address"
        },
        {
          "indexed": true,
          "internalType": "address",
          "name": "copyCommunity",
          "type": "address"
        }
      ],
      "name": "CommunityCopied",
      "type": "event"
    },
    {
      "anonymous": false,
      "inputs": [
        {
          "indexed": true,
          "internalType": "address",
          "name": "community",
          "type": "address"
        },
        {
          "indexed": false,
          "internalType": "uint256",
          "name": "amount",
          "type": "uint256"
        }
      ],
      "name": "CommunityFunded",
      "type": "event"
    },
    {
      "anonymous": false,
      "inputs": [
        {
          "indexed": true,
          "internalType": "address",
          "name": "oldCommunityImplementation",
          "type": "address"
        },
        {
          "indexed": true,
          "internalType": "address",
          "name": "newCommunityImplementation",
          "type": "address"
        }
      ],
      "name": "CommunityImplementationUpdated",
      "type": "event"
    },
    {
      "anonymous": false,
      "inputs": [
        {
          "indexed": false,
          "internalType": "address",
          "name": "oldCommunityMiddleProxy",
          "type": "address"
        },
        {
          "indexed": false,
          "internalType": "address",
          "name": "newCommunityMiddleProxy",
          "type": "address"
        }
      ],
      "name": "CommunityMiddleProxyUpdated",
      "type": "event"
    },
    {
      "anonymous": false,
      "inputs": [
        {
          "indexed": false,
          "internalType": "address[]",
          "name": "managers",
          "type": "address[]"
        },
        {
          "indexed": true,
          "internalType": "address",
          "name": "communityAddress",
          "type": "address"
        },
        {
          "indexed": true,
          "internalType": "address",
          "name": "previousCommunityAddress",
          "type": "address"
        }
      ],
      "name": "CommunityMigrated",
      "type": "event"
    },
    {
      "anonymous": false,
      "inputs": [
        {
          "indexed": true,
          "internalType": "address",
          "name": "communityAddress",
          "type": "address"
        }
      ],
      "name": "CommunityRemoved",
      "type": "event"
    },
    {
      "anonymous": false,
      "inputs": [
        {
          "indexed": true,
          "internalType": "address",
          "name": "oldImpactMarketCouncil",
          "type": "address"
        },
        {
          "indexed": true,
          "internalType": "address",
          "name": "newImpactMarketCouncil",
          "type": "address"
        }
      ],
      "name": "ImpactMarketCouncilUpdated",
      "type": "event"
    },
    {
      "anonymous": false,
      "inputs": [
        {
          "indexed": true,
          "internalType": "address",
          "name": "previousOwner",
          "type": "address"
        },
        {
          "indexed": true,
          "internalType": "address",
          "name": "newOwner",
          "type": "address"
        }
      ],
      "name": "OwnershipTransferred",
      "type": "event"
    },
    {
      "anonymous": false,
      "inputs": [
        {
          "indexed": true,
          "internalType": "address",
          "name": "token",
          "type": "address"
        },
        {
          "indexed": true,
          "internalType": "address",
          "name": "to",
          "type": "address"
        },
        {
          "indexed": false,
          "internalType": "uint256",
          "name": "amount",
          "type": "uint256"
        }
      ],
      "name": "TransferERC20",
      "type": "event"
    },
    {
      "anonymous": false,
      "inputs": [
        {
          "indexed": true,
          "internalType": "address",
          "name": "oldTreasury",
          "type": "address"
        },
        {
          "indexed": true,
          "internalType": "address",
          "name": "newTreasury",
          "type": "address"
        }
      ],
      "name": "TreasuryUpdated",
      "type": "event"
    },
    {
      "inputs": [
        {
          "internalType": "address",
          "name": "_tokenAddress",
          "type": "address"
        },
        {
          "internalType": "address[]",
          "name": "_managers",
          "type": "address[]"
        },
        {
          "internalType": "address",
          "name": "_ambassador",
          "type": "address"
        },
        {
          "internalType": "uint256",
          "name": "_originalClaimAmount",
          "type": "uint256"
        },
        {
          "internalType": "uint256",
          "name": "_maxTotalClaim",
          "type": "uint256"
        },
        {
          "internalType": "uint256",
          "name": "_decreaseStep",
          "type": "uint256"
        },
        {
          "internalType": "uint256",
          "name": "_baseInterval",
          "type": "uint256"
        },
        {
          "internalType": "uint256",
          "name": "_incrementInterval",
          "type": "uint256"
        },
        {
          "internalType": "uint256",
          "name": "_minTranche",
          "type": "uint256"
        },
        {
          "internalType": "uint256",
          "name": "_maxTranche",
          "type": "uint256"
        },
        {
          "internalType": "uint256",
          "name": "_maxBeneficiaries",
          "type": "uint256"
        }
      ],
      "name": "addCommunity",
      "outputs": [],
      "stateMutability": "nonpayable",
      "type": "function"
    },
    {
      "inputs": [],
      "name": "ambassadors",
      "outputs": [
        {
          "internalType": "contract IAmbassadors",
          "name": "",
          "type": "address"
        }
      ],
      "stateMutability": "view",
      "type": "function"
    },
    {
      "inputs": [],
      "name": "authorizedWalletAddress",
      "outputs": [
        {
          "internalType": "address",
          "name": "",
          "type": "address"
        }
      ],
      "stateMutability": "view",
      "type": "function"
    },
    {
      "inputs": [],
      "name": "cUSD",
      "outputs": [
        {
          "internalType": "contract IERC20Upgradeable",
          "name": "",
          "type": "address"
        }
      ],
      "stateMutability": "view",
      "type": "function"
    },
    {
      "inputs": [
        {
          "internalType": "contract ICommunity",
          "name": "_community",
          "type": "address"
        }
      ],
      "name": "calculateCommunityTrancheAmount",
      "outputs": [
        {
          "internalType": "uint256",
          "name": "",
          "type": "uint256"
        }
      ],
      "stateMutability": "view",
      "type": "function"
    },
    {
      "inputs": [
        {
          "internalType": "address",
          "name": "",
          "type": "address"
        }
      ],
      "name": "communities",
      "outputs": [
        {
          "internalType": "enum ICommunityAdmin.CommunityState",
          "name": "",
          "type": "uint8"
        }
      ],
      "stateMutability": "view",
      "type": "function"
    },
    {
      "inputs": [],
      "name": "communityImplementation",
      "outputs": [
        {
          "internalType": "contract ICommunity",
          "name": "",
          "type": "address"
        }
      ],
      "stateMutability": "view",
      "type": "function"
    },
    {
      "inputs": [
        {
          "internalType": "uint256",
          "name": "_index",
          "type": "uint256"
        }
      ],
      "name": "communityListAt",
      "outputs": [
        {
          "internalType": "address",
          "name": "",
          "type": "address"
        }
      ],
      "stateMutability": "view",
      "type": "function"
    },
    {
      "inputs": [],
      "name": "communityListLength",
      "outputs": [
        {
          "internalType": "uint256",
          "name": "",
          "type": "uint256"
        }
      ],
      "stateMutability": "view",
      "type": "function"
    },
    {
      "inputs": [],
      "name": "communityMiddleProxy",
      "outputs": [
        {
          "internalType": "address",
          "name": "",
          "type": "address"
        }
      ],
      "stateMutability": "view",
      "type": "function"
    },
    {
      "inputs": [],
      "name": "communityProxyAdmin",
      "outputs": [
        {
          "internalType": "contract ProxyAdmin",
          "name": "",
          "type": "address"
        }
      ],
      "stateMutability": "view",
      "type": "function"
    },
    {
      "inputs": [],
      "name": "fundCommunity",
      "outputs": [
        {
          "internalType": "uint256",
          "name": "",
          "type": "uint256"
        }
      ],
      "stateMutability": "nonpayable",
      "type": "function"
    },
    {
      "inputs": [
        {
          "internalType": "address",
          "name": "_communityProxyAddress",
          "type": "address"
        }
      ],
      "name": "getCommunityProxyImplementation",
      "outputs": [
        {
          "internalType": "address",
          "name": "",
          "type": "address"
        }
      ],
      "stateMutability": "view",
      "type": "function"
    },
    {
      "inputs": [],
      "name": "getVersion",
      "outputs": [
        {
          "internalType": "uint256",
          "name": "",
          "type": "uint256"
        }
      ],
      "stateMutability": "pure",
      "type": "function"
    },
    {
      "inputs": [],
      "name": "impactMarketCouncil",
      "outputs": [
        {
          "internalType": "contract IImpactMarketCouncil",
          "name": "",
          "type": "address"
        }
      ],
      "stateMutability": "view",
      "type": "function"
    },
    {
      "inputs": [
        {
          "internalType": "contract ICommunity",
          "name": "_communityImplementation",
          "type": "address"
        },
        {
          "internalType": "contract IERC20Upgradeable",
          "name": "_cUSD",
          "type": "address"
        }
      ],
      "name": "initialize",
      "outputs": [],
      "stateMutability": "nonpayable",
      "type": "function"
    },
    {
      "inputs": [
        {
          "internalType": "address",
          "name": "_community",
          "type": "address"
        },
        {
          "internalType": "address",
          "name": "_ambassadorOrEntity",
          "type": "address"
        }
      ],
      "name": "isAmbassadorOrEntityOfCommunity",
      "outputs": [
        {
          "internalType": "bool",
          "name": "",
          "type": "bool"
        }
      ],
      "stateMutability": "view",
      "type": "function"
    },
    {
      "inputs": [
        {
          "internalType": "address[]",
          "name": "_managers",
          "type": "address[]"
        },
        {
          "internalType": "contract ICommunity",
          "name": "_previousCommunity",
          "type": "address"
        }
      ],
      "name": "migrateCommunity",
      "outputs": [],
      "stateMutability": "nonpayable",
      "type": "function"
    },
    {
      "inputs": [],
      "name": "minClaimAmountRatio",
      "outputs": [
        {
          "internalType": "uint256",
          "name": "",
          "type": "uint256"
        }
      ],
      "stateMutability": "view",
      "type": "function"
    },
    {
      "inputs": [],
      "name": "minClaimAmountRatioPrecision",
      "outputs": [
        {
          "internalType": "uint256",
          "name": "",
          "type": "uint256"
        }
      ],
      "stateMutability": "pure",
      "type": "function"
    },
    {
      "inputs": [],
      "name": "owner",
      "outputs": [
        {
          "internalType": "address",
          "name": "",
          "type": "address"
        }
      ],
      "stateMutability": "view",
      "type": "function"
    },
    {
      "inputs": [
        {
          "internalType": "contract ICommunity",
          "name": "_community",
          "type": "address"
        }
      ],
      "name": "removeCommunity",
      "outputs": [],
      "stateMutability": "nonpayable",
      "type": "function"
    },
    {
      "inputs": [],
      "name": "renounceOwnership",
      "outputs": [],
      "stateMutability": "nonpayable",
      "type": "function"
    },
    {
      "inputs": [
        {
          "internalType": "address",
          "name": "_ambassador",
          "type": "address"
        },
        {
          "internalType": "contract ICommunity",
          "name": "_community",
          "type": "address"
        }
      ],
      "name": "setCommunityToAmbassador",
      "outputs": [],
      "stateMutability": "nonpayable",
      "type": "function"
    },
    {
      "inputs": [
        {
          "internalType": "contract ICommunity",
          "name": "_community",
          "type": "address"
        },
        {
          "internalType": "uint256",
          "name": "_numberOfCopies",
          "type": "uint256"
        },
        {
          "internalType": "address",
          "name": "_ambassador",
          "type": "address"
        },
        {
          "internalType": "address[]",
          "name": "_managers",
          "type": "address[]"
        }
      ],
      "name": "splitCommunity",
      "outputs": [],
      "stateMutability": "nonpayable",
      "type": "function"
    },
    {
      "inputs": [
        {
          "internalType": "contract IERC20Upgradeable",
          "name": "_token",
          "type": "address"
        },
        {
          "internalType": "address",
          "name": "_to",
          "type": "address"
        },
        {
          "internalType": "uint256",
          "name": "_amount",
          "type": "uint256"
        }
      ],
      "name": "transfer",
      "outputs": [],
      "stateMutability": "nonpayable",
      "type": "function"
    },
    {
      "inputs": [
        {
          "internalType": "contract ICommunity",
          "name": "_community",
          "type": "address"
        },
        {
          "internalType": "contract IERC20Upgradeable",
          "name": "_token",
          "type": "address"
        },
        {
          "internalType": "address",
          "name": "_to",
          "type": "address"
        },
        {
          "internalType": "uint256",
          "name": "_amount",
          "type": "uint256"
        }
      ],
      "name": "transferFromCommunity",
      "outputs": [],
      "stateMutability": "nonpayable",
      "type": "function"
    },
    {
      "inputs": [
        {
          "internalType": "address",
          "name": "newOwner",
          "type": "address"
        }
      ],
      "name": "transferOwnership",
      "outputs": [],
      "stateMutability": "nonpayable",
      "type": "function"
    },
    {
      "inputs": [
        {
          "internalType": "contract IERC20Upgradeable",
          "name": "_token",
          "type": "address"
        },
        {
          "internalType": "address",
          "name": "_beneficiary",
          "type": "address"
        },
        {
          "internalType": "uint256",
          "name": "_amount",
          "type": "uint256"
        }
      ],
      "name": "transferToBeneficiary",
      "outputs": [],
      "stateMutability": "nonpayable",
      "type": "function"
    },
    {
      "inputs": [],
      "name": "treasury",
      "outputs": [
        {
          "internalType": "contract ITreasury",
          "name": "",
          "type": "address"
        }
      ],
      "stateMutability": "view",
      "type": "function"
    },
    {
      "inputs": [],
      "name": "treasuryMinBalance",
      "outputs": [
        {
          "internalType": "uint256",
          "name": "",
          "type": "uint256"
        }
      ],
      "stateMutability": "view",
      "type": "function"
    },
    {
      "inputs": [],
      "name": "treasurySafetyPercentage",
      "outputs": [
        {
          "internalType": "uint256",
          "name": "",
          "type": "uint256"
        }
      ],
      "stateMutability": "view",
      "type": "function"
    },
    {
      "inputs": [
        {
          "internalType": "contract IAmbassadors",
          "name": "_newAmbassadors",
          "type": "address"
        }
      ],
      "name": "updateAmbassadors",
      "outputs": [],
      "stateMutability": "nonpayable",
      "type": "function"
    },
    {
      "inputs": [
        {
          "internalType": "address",
          "name": "_newAuthorizedWalletAddress",
          "type": "address"
        }
      ],
      "name": "updateAuthorizedWalletAddress",
      "outputs": [],
      "stateMutability": "nonpayable",
      "type": "function"
    },
    {
      "inputs": [
        {
          "internalType": "contract ICommunity",
          "name": "_community",
          "type": "address"
        },
        {
          "internalType": "uint256",
          "name": "_originalClaimAmount",
          "type": "uint256"
        },
        {
          "internalType": "uint256",
          "name": "_maxTotalClaim",
          "type": "uint256"
        },
        {
          "internalType": "uint256",
          "name": "_decreaseStep",
          "type": "uint256"
        },
        {
          "internalType": "uint256",
          "name": "_baseInterval",
          "type": "uint256"
        },
        {
          "internalType": "uint256",
          "name": "_incrementInterval",
          "type": "uint256"
        },
        {
          "internalType": "uint256",
          "name": "_maxBeneficiaries",
          "type": "uint256"
        }
      ],
      "name": "updateBeneficiaryParams",
      "outputs": [],
      "stateMutability": "nonpayable",
      "type": "function"
    },
    {
      "inputs": [
        {
          "internalType": "contract ICommunity",
          "name": "_newCommunityImplementation",
          "type": "address"
        }
      ],
      "name": "updateCommunityImplementation",
      "outputs": [],
      "stateMutability": "nonpayable",
      "type": "function"
    },
    {
      "inputs": [
        {
          "internalType": "address",
          "name": "_newCommunityMiddleProxy",
          "type": "address"
        }
      ],
      "name": "updateCommunityMiddleProxy",
      "outputs": [],
      "stateMutability": "nonpayable",
      "type": "function"
    },
    {
      "inputs": [
        {
          "internalType": "contract ICommunity",
          "name": "_community",
          "type": "address"
        },
        {
          "internalType": "uint256",
          "name": "_minTranche",
          "type": "uint256"
        },
        {
          "internalType": "uint256",
          "name": "_maxTranche",
          "type": "uint256"
        }
      ],
      "name": "updateCommunityParams",
      "outputs": [],
      "stateMutability": "nonpayable",
      "type": "function"
    },
    {
      "inputs": [
        {
          "internalType": "contract ICommunity",
          "name": "_community",
          "type": "address"
        },
        {
          "internalType": "contract IERC20Upgradeable",
          "name": "_newToken",
          "type": "address"
        },
        {
          "internalType": "bytes",
          "name": "_exchangePath",
          "type": "bytes"
        },
        {
          "internalType": "uint256",
          "name": "_originalClaimAmount",
          "type": "uint256"
        },
        {
          "internalType": "uint256",
          "name": "_maxTotalClaim",
          "type": "uint256"
        },
        {
          "internalType": "uint256",
          "name": "_decreaseStep",
          "type": "uint256"
        },
        {
          "internalType": "uint256",
          "name": "_baseInterval",
          "type": "uint256"
        },
        {
          "internalType": "uint256",
          "name": "_incrementInterval",
          "type": "uint256"
        }
      ],
      "name": "updateCommunityToken",
      "outputs": [],
      "stateMutability": "nonpayable",
      "type": "function"
    },
    {
      "inputs": [
        {
          "internalType": "contract IImpactMarketCouncil",
          "name": "_newImpactMarketCouncil",
          "type": "address"
        }
      ],
      "name": "updateImpactMarketCouncil",
      "outputs": [],
      "stateMutability": "nonpayable",
      "type": "function"
    },
    {
      "inputs": [
        {
          "internalType": "uint256",
          "name": "_newMinClaimAmountRatio",
          "type": "uint256"
        }
      ],
      "name": "updateMinClaimAmountRatio",
      "outputs": [],
      "stateMutability": "nonpayable",
      "type": "function"
    },
    {
      "inputs": [
        {
          "internalType": "address",
          "name": "_communityMiddleProxy",
          "type": "address"
        },
        {
          "internalType": "address",
          "name": "_newCommunityImplementation",
          "type": "address"
        }
      ],
      "name": "updateProxyImplementation",
      "outputs": [],
      "stateMutability": "nonpayable",
      "type": "function"
    },
    {
      "inputs": [
        {
          "internalType": "contract ITreasury",
          "name": "_newTreasury",
          "type": "address"
        }
      ],
      "name": "updateTreasury",
      "outputs": [],
      "stateMutability": "nonpayable",
      "type": "function"
    },
    {
      "inputs": [
        {
          "internalType": "uint256",
          "name": "_newTreasuryMinBalance",
          "type": "uint256"
        }
      ],
      "name": "updateTreasuryMinBalance",
      "outputs": [],
      "stateMutability": "nonpayable",
      "type": "function"
    },
    {
      "inputs": [
        {
          "internalType": "uint256",
          "name": "_newTreasurySafetyPercentage",
          "type": "uint256"
        }
      ],
      "name": "updateTreasurySafetyPercentage",
      "outputs": [],
      "stateMutability": "nonpayable",
      "type": "function"
    }
  ],
  "bytecode": "0x608060405234801561001057600080fd5b506162f9806100206000396000f3fe60806040523480156200001157600080fd5b5060043610620002b55760003560e01c80637f51bb1f1162000179578063b39f7ea411620000df578063d7599b6d1162000092578063d7599b6d146200061a578063e80d93a2146200062e578063f00d09641462000645578063f2fde38b146200064f578063f34ded501462000666578063fbb121b9146200067d57600080fd5b8063b39f7ea414620005a0578063b94ef2c214620005b4578063beabacc814620005be578063becc3ce314620005d5578063c0b3444e14620005ec578063ca5c2856146200060357600080fd5b80639263454011620001385780639263454014620005285780639c22d32c146200053f5780639d18788b1462000556578063af2d77f8146200056d578063afae65be1462000581578063b1909ef2146200058957600080fd5b80637f51bb1f14620004bd57806381449efe14620004d45780638da5cb5b14620004eb5780638e2d90db14620004fd5780638e4254f4146200051457600080fd5b80634e39da23116200021f5780636b0de23f11620001de5780636b0de23f146200042b5780636b68b2ef14620004535780636d923146146200045d578063715018a614620004745780637c7db5d7146200047e5780637f2813d2146200048857600080fd5b80634e39da2314620003be578063502791b614620003d557806361d027b314620003e957806369f3d32914620003fd5780636a3c3865146200041457600080fd5b80631fccf67211620002785780631fccf6721462000337578063212a9de5146200034b5780632de00ddc1462000362578063372a8f4d146200037957806339f539a21462000390578063485cc95514620003a757600080fd5b8063016a041614620002ba5780630cb967a314620002eb5780630d8e6e2c1462000304578063174a71d714620003165780631d2c93591462000320575b600080fd5b609a54620002ce906001600160a01b031681565b6040516001600160a01b0390911681526020015b60405180910390f35b62000302620002fc366004620042ec565b62000694565b005b60035b604051908152602001620002e2565b6200030762000733565b62000302620003313660046200449a565b620009da565b609754620002ce906001600160a01b031681565b620003026200035c366004620045de565b62000aa3565b62000302620003733660046200441a565b620012ba565b620002ce6200038a36600462004723565b6200136b565b62000302620003a13660046200432a565b62001380565b62000302620003b83660046200441a565b620013fe565b62000302620003cf366004620042ec565b6200154f565b609e54620002ce906001600160a01b031681565b609854620002ce906001600160a01b031681565b620003026200040e366004620044f1565b620015d8565b620003026200042536600462004687565b62001693565b620004426200043c3660046200432a565b620017b3565b6040519015158152602001620002e2565b6200030760a25481565b620003026200046e366004620046de565b620018d4565b62000302620019f7565b6200030760a35481565b620004ae62000499366004620042ec565b609b6020526000908152604090205460ff1681565b604051620002e2919062004932565b62000302620004ce366004620042ec565b62001a32565b62000302620004e536600462004650565b62001abb565b6033546001600160a01b0316620002ce565b620003026200050e3660046200442d565b62001b66565b609954620002ce906001600160a01b031681565b6200030262000539366004620042ec565b620024fd565b620003026200055036600462004723565b6200292d565b620003026200056736600462004367565b620029fd565b60a154620002ce906001600160a01b031681565b606462000307565b620003076200059a366004620042ec565b62002d85565b60a054620002ce906001600160a01b031681565b6200030760a45481565b62000302620005cf366004620046de565b620034fb565b62000302620005e636600462004723565b620035c1565b62000302620005fd36600462004723565b62003609565b6200030262000614366004620042ec565b620036ef565b609f54620002ce906001600160a01b031681565b620003026200063f366004620042ec565b62003778565b6200030762003801565b6200030262000660366004620042ec565b62003814565b6200030262000677366004620042ec565b620038b6565b620002ce6200068e366004620042ec565b6200391b565b6033546001600160a01b03163314620006ca5760405162461bcd60e51b8152600401620006c190620049c0565b60405180910390fd5b60a054604080516001600160a01b03928316815291831660208301527fa5c3a96c9b28d1f0ca36f6d9cc9a8cf138656ee223e4b99adf4a58d10f1048a0910160405180910390a160a080546001600160a01b0319166001600160a01b0392909216919091179055565b60006001336000908152609b602052604090205460ff1660038111156200076a57634e487b7160e01b600052602160045260246000fd5b14620007b95760405162461bcd60e51b815260206004820152601d60248201527f436f6d6d756e69747941646d696e3a204e4f545f434f4d4d554e4954590000006044820152606401620006c1565b60003390506000816001600160a01b0316630d8e6e2c6040518163ffffffff1660e01b815260040160206040518083038186803b158015620007fa57600080fd5b505afa1580156200080f573d6000803e3d6000fd5b505050506040513d601f19601f820116820180604052508101906200083591906200473c565b600114620008b857816001600160a01b031663fc0c546a6040518163ffffffff1660e01b815260040160206040518083038186803b1580156200087757600080fd5b505afa1580156200088c573d6000803e3d6000fd5b505050506040513d601f19601f82011682018060405250810190620008b291906200430b565b6200092d565b816001600160a01b0316631fccf6726040518163ffffffff1660e01b815260040160206040518083038186803b158015620008f257600080fd5b505afa15801562000907573d6000803e3d6000fd5b505050506040513d601f19601f820116820180604052508101906200092d91906200430b565b6040516370a0823160e01b81523360048201529091506000906001600160a01b038316906370a082319060240160206040518083038186803b1580156200097357600080fd5b505afa15801562000988573d6000803e3d6000fd5b505050506040513d601f19601f82011682018060405250810190620009ae91906200473c565b90506000620009bd3362002d85565b90508015620009d257620009d284826200399d565b935050505090565b6033546001600160a01b0316331462000a075760405162461bcd60e51b8152600401620006c190620049c0565b6002606554141562000a2d5760405162461bcd60e51b8152600401620006c19062004a8b565b60026065556040516317d5759960e31b81526001600160a01b0385169063beabacc89062000a6490869086908690600401620048be565b600060405180830381600087803b15801562000a7f57600080fd5b505af115801562000a94573d6000803e3d6000fd5b50506001606555505050505050565b6033546001600160a01b031633148062000ac75750609e546001600160a01b031633145b62000ae65760405162461bcd60e51b8152600401620006c19062004970565b6002606554141562000b0c5760405162461bcd60e51b8152600401620006c19062004a8b565b600260655560016001600160a01b0385166000908152609b602052604090205460ff16600381111562000b4f57634e487b7160e01b600052602160045260246000fd5b1462000bc45760405162461bcd60e51b815260206004820152603760248201527f436f6d6d756e69747941646d696e3a3a73706c6974436f6d6d756e6974793a2060448201527f696e76616c696420636f6d6d756e6974792073746174650000000000000000006064820152608401620006c1565b6003846001600160a01b0316630d8e6e2c6040518163ffffffff1660e01b815260040160206040518083038186803b15801562000c0057600080fd5b505afa15801562000c15573d6000803e3d6000fd5b505050506040513d601f19601f8201168201806040525081019062000c3b91906200473c565b101562000cb15760405162461bcd60e51b815260206004820152603960248201527f436f6d6d756e69747941646d696e3a3a73706c6974436f6d6d756e6974793a2060448201527f696e76616c696420636f6d6d756e6974792076657273696f6e000000000000006064820152608401620006c1565b60005b8315620012ae5762000cc68462004ba1565b9350620010f2856001600160a01b031663fc0c546a6040518163ffffffff1660e01b815260040160206040518083038186803b15801562000d0657600080fd5b505afa15801562000d1b573d6000803e3d6000fd5b505050506040513d601f19601f8201168201806040525081019062000d4191906200430b565b83876001600160a01b031663fb7b0a0c6040518163ffffffff1660e01b815260040160206040518083038186803b15801562000d7c57600080fd5b505afa15801562000d91573d6000803e3d6000fd5b505050506040513d601f19601f8201168201806040525081019062000db791906200473c565b886001600160a01b03166378ba280f6040518163ffffffff1660e01b815260040160206040518083038186803b15801562000df157600080fd5b505afa15801562000e06573d6000803e3d6000fd5b505050506040513d601f19601f8201168201806040525081019062000e2c91906200473c565b896001600160a01b031663c51fab3c6040518163ffffffff1660e01b815260040160206040518083038186803b15801562000e6657600080fd5b505afa15801562000e7b573d6000803e3d6000fd5b505050506040513d601f19601f8201168201806040525081019062000ea191906200473c565b8a6001600160a01b0316630e5b7c536040518163ffffffff1660e01b815260040160206040518083038186803b15801562000edb57600080fd5b505afa15801562000ef0573d6000803e3d6000fd5b505050506040513d601f19601f8201168201806040525081019062000f1691906200473c565b8b6001600160a01b031663597be18b6040518163ffffffff1660e01b815260040160206040518083038186803b15801562000f5057600080fd5b505afa15801562000f65573d6000803e3d6000fd5b505050506040513d601f19601f8201168201806040525081019062000f8b91906200473c565b8c6001600160a01b031663dd4414bb6040518163ffffffff1660e01b815260040160206040518083038186803b15801562000fc557600080fd5b505afa15801562000fda573d6000803e3d6000fd5b505050506040513d601f19601f820116820180604052508101906200100091906200473c565b8d6001600160a01b0316632b2711176040518163ffffffff1660e01b815260040160206040518083038186803b1580156200103a57600080fd5b505afa1580156200104f573d6000803e3d6000fd5b505050506040513d601f19601f820116820180604052508101906200107591906200473c565b8e6001600160a01b031663a0f93a176040518163ffffffff1660e01b815260040160206040518083038186803b158015620010af57600080fd5b505afa158015620010c4573d6000803e3d6000fd5b505050506040513d601f19601f82011682018060405250810190620010ea91906200473c565b600062003c7f565b90506001600160a01b0381166200111d5760405162461bcd60e51b8152600401620006c190620049f5565b6001600160a01b0381166000908152609b60205260409020805460ff191660011790556200114d609c8262003d74565b5060405162afbe3960e51b81526001600160a01b0382811660048301528616906315f7c72090602401600060405180830381600087803b1580156200119157600080fd5b505af1158015620011a6573d6000803e3d6000fd5b5050604051633bb68f1360e21b81526001600160a01b0388811660048301528416925063eeda3c4c9150602401600060405180830381600087803b158015620011ee57600080fd5b505af115801562001203573d6000803e3d6000fd5b5050609f54604051630b78037760e21b81526001600160a01b03878116600483015285811660248301529091169250632de00ddc9150604401600060405180830381600087803b1580156200125757600080fd5b505af11580156200126c573d6000803e3d6000fd5b50506040516001600160a01b038085169350881691507f4c8a0d1036aeffbc4de12b3b642c2b9d9cffa18b7e2a4ac6ff3b1474a5fe2fd790600090a362000cb4565b50506001606555505050565b6033546001600160a01b0316331480620012de5750609e546001600160a01b031633145b620012fd5760405162461bcd60e51b8152600401620006c19062004970565b609f54604051630b78037760e21b81526001600160a01b038481166004830152838116602483015290911690632de00ddc906044015b600060405180830381600087803b1580156200134e57600080fd5b505af115801562001363573d6000803e3d6000fd5b505050505050565b60006200137a609c8362003d8b565b92915050565b6033546001600160a01b0316331480620013a45750609e546001600160a01b031633145b620013c35760405162461bcd60e51b8152600401620006c19062004970565b609a5460405163266a23b160e21b81526001600160a01b0384811660048301528381166024830152909116906399a88ec49060440162001333565b600054610100900460ff166200141b5760005460ff16156200141f565b303b155b620014845760405162461bcd60e51b815260206004820152602e60248201527f496e697469616c697a61626c653a20636f6e747261637420697320616c72656160448201526d191e481a5b9a5d1a585b1a5e995960921b6064820152608401620006c1565b600054610100900460ff16158015620014a7576000805461ffff19166101011790555b620014b162003d99565b620014bb62003dd7565b609980546001600160a01b038086166001600160a01b0319928316179092556097805492851692909116919091179055604051620014f99062004239565b604051809103906000f08015801562001516573d6000803e3d6000fd5b50609a80546001600160a01b0319166001600160a01b039290921691909117905580156200154a576000805461ff00191690555b505050565b6033546001600160a01b031633146200157c5760405162461bcd60e51b8152600401620006c190620049c0565b609f546040516001600160a01b038084169216907fbede3ab527cb73f6396abc70a54cb6637fe75d7f41468cd7b55900027382f7db90600090a3609f80546001600160a01b0319166001600160a01b0392909216919091179055565b6033546001600160a01b0316331480620015fc5750609e546001600160a01b031633145b6200161b5760405162461bcd60e51b8152600401620006c19062004970565b604051636290a57960e01b81526001600160a01b03891690636290a5799062001655908a908a908a908a908a908a908a90600401620048e2565b600060405180830381600087803b1580156200167057600080fd5b505af115801562001685573d6000803e3d6000fd5b505050505050505050505050565b6033546001600160a01b0316331480620016b75750609e546001600160a01b031633145b620016d65760405162461bcd60e51b8152600401620006c19062004970565b604051632fd7910360e01b815260048101879052602481018690526044810185905260648101849052608481018390526001600160a01b03881690632fd791039060a401600060405180830381600087803b1580156200173557600080fd5b505af11580156200174a573d6000803e3d6000fd5b5050604051630c17fd9560e21b8152600481018490526001600160a01b038a16925063305ff6549150602401600060405180830381600087803b1580156200179157600080fd5b505af1158015620017a6573d6000803e3d6000fd5b5050505050505050505050565b609f54604051631611acd760e31b81526001600160a01b0383811660048301528481166024830152600092169063b08d66b89060440160206040518083038186803b1580156200180257600080fd5b505afa15801562001817573d6000803e3d6000fd5b505050506040513d601f19601f820116820180604052508101906200183d919062004478565b80620018cd5750609f5460405163cb53f50360e01b81526001600160a01b03848116600483015285811660248301529091169063cb53f5039060440160206040518083038186803b1580156200189257600080fd5b505afa158015620018a7573d6000803e3d6000fd5b505050506040513d601f19601f82011682018060405250810190620018cd919062004478565b9392505050565b6001336000908152609b602052604090205460ff1660038111156200190957634e487b7160e01b600052602160045260246000fd5b14620019585760405162461bcd60e51b815260206004820152601d60248201527f436f6d6d756e69747941646d696e3a204e4f545f434f4d4d554e4954590000006044820152606401620006c1565b600260655414156200197e5760405162461bcd60e51b8152600401620006c19062004a8b565b60026065556098546040516317d5759960e31b81526001600160a01b039091169063beabacc890620019b990869086908690600401620048be565b600060405180830381600087803b158015620019d457600080fd5b505af1158015620019e9573d6000803e3d6000fd5b505060016065555050505050565b6033546001600160a01b0316331462001a245760405162461bcd60e51b8152600401620006c190620049c0565b62001a30600062003e0b565b565b6033546001600160a01b0316331462001a5f5760405162461bcd60e51b8152600401620006c190620049c0565b6098546040516001600160a01b038084169216907f4ab5be82436d353e61ca18726e984e561f5c1cc7c6d38b29d2553c790434705a90600090a3609880546001600160a01b0319166001600160a01b0392909216919091179055565b6033546001600160a01b031633148062001adf5750609e546001600160a01b031633145b62001afe5760405162461bcd60e51b8152600401620006c19062004970565b604051630644b36d60e21b815260048101839052602481018290526001600160a01b03841690631912cdb490604401600060405180830381600087803b15801562001b4857600080fd5b505af115801562001b5d573d6000803e3d6000fd5b50505050505050565b6033546001600160a01b031633148062001b8a5750609e546001600160a01b031633145b62001ba95760405162461bcd60e51b8152600401620006c19062004970565b6002606554141562001bcf5760405162461bcd60e51b8152600401620006c19062004a8b565b600260655560036001600160a01b0382166000908152609b602052604090205460ff16600381111562001c1257634e487b7160e01b600052602160045260246000fd5b141562001c935760405162461bcd60e51b815260206004820152604260248201527f436f6d6d756e69747941646d696e3a3a6d696772617465436f6d6d756e69747960448201527f3a207468697320636f6d6d756e69747920686173206265656e206d6967726174606482015261195960f21b608482015260a401620006c1565b6001600160a01b0381166000818152609b60209081526040808320805460ff1916600317905580516303639b8b60e21b81529051929392630d8e6e2c92600480840193919291829003018186803b15801562001cee57600080fd5b505afa15801562001d03573d6000803e3d6000fd5b505050506040513d601f19601f8201168201806040525081019062001d2991906200473c565b60011462001dac57816001600160a01b031663fc0c546a6040518163ffffffff1660e01b815260040160206040518083038186803b15801562001d6b57600080fd5b505afa15801562001d80573d6000803e3d6000fd5b505050506040513d601f19601f8201168201806040525081019062001da691906200430b565b62001e21565b816001600160a01b0316631fccf6726040518163ffffffff1660e01b815260040160206040518083038186803b15801562001de657600080fd5b505afa15801562001dfb573d6000803e3d6000fd5b505050506040513d601f19601f8201168201806040525081019062001e2191906200430b565b905060006003836001600160a01b0316630d8e6e2c6040518163ffffffff1660e01b815260040160206040518083038186803b15801562001e6157600080fd5b505afa15801562001e76573d6000803e3d6000fd5b505050506040513d601f19601f8201168201806040525081019062001e9c91906200473c565b101562001f1e57826001600160a01b031663830953ab6040518163ffffffff1660e01b815260040160206040518083038186803b15801562001edd57600080fd5b505afa15801562001ef2573d6000803e3d6000fd5b505050506040513d601f19601f8201168201806040525081019062001f1891906200473c565b62001f93565b826001600160a01b031663fb7b0a0c6040518163ffffffff1660e01b815260040160206040518083038186803b15801562001f5857600080fd5b505afa15801562001f6d573d6000803e3d6000fd5b505050506040513d601f19601f8201168201806040525081019062001f9391906200473c565b905060006200235d838684876001600160a01b03166378ba280f6040518163ffffffff1660e01b815260040160206040518083038186803b15801562001fd857600080fd5b505afa15801562001fed573d6000803e3d6000fd5b505050506040513d601f19601f820116820180604052508101906200201391906200473c565b886001600160a01b031663c51fab3c6040518163ffffffff1660e01b815260040160206040518083038186803b1580156200204d57600080fd5b505afa15801562002062573d6000803e3d6000fd5b505050506040513d601f19601f820116820180604052508101906200208891906200473c565b896001600160a01b0316630e5b7c536040518163ffffffff1660e01b815260040160206040518083038186803b158015620020c257600080fd5b505afa158015620020d7573d6000803e3d6000fd5b505050506040513d601f19601f82011682018060405250810190620020fd91906200473c565b8a6001600160a01b031663597be18b6040518163ffffffff1660e01b815260040160206040518083038186803b1580156200213757600080fd5b505afa1580156200214c573d6000803e3d6000fd5b505050506040513d601f19601f820116820180604052508101906200217291906200473c565b8b6001600160a01b031663dd4414bb6040518163ffffffff1660e01b815260040160206040518083038186803b158015620021ac57600080fd5b505afa158015620021c1573d6000803e3d6000fd5b505050506040513d601f19601f82011682018060405250810190620021e791906200473c565b8c6001600160a01b0316632b2711176040518163ffffffff1660e01b815260040160206040518083038186803b1580156200222157600080fd5b505afa15801562002236573d6000803e3d6000fd5b505050506040513d601f19601f820116820180604052508101906200225c91906200473c565b60018e6001600160a01b0316630d8e6e2c6040518163ffffffff1660e01b815260040160206040518083038186803b1580156200229857600080fd5b505afa158015620022ad573d6000803e3d6000fd5b505050506040513d601f19601f82011682018060405250810190620022d391906200473c565b11620022e157600062002356565b8d6001600160a01b031663a0f93a176040518163ffffffff1660e01b815260040160206040518083038186803b1580156200231b57600080fd5b505afa15801562002330573d6000803e3d6000fd5b505050506040513d601f19601f820116820180604052508101906200235691906200473c565b8e62003c7f565b90506001600160a01b038116620023885760405162461bcd60e51b8152600401620006c190620049f5565b6040516370a0823160e01b81526001600160a01b038581166004830152600091908516906370a082319060240160206040518083038186803b158015620023ce57600080fd5b505afa158015620023e3573d6000803e3d6000fd5b505050506040513d601f19601f820116820180604052508101906200240991906200473c565b6040516317d5759960e31b81529091506001600160a01b0386169063beabacc8906200243e90879086908690600401620048be565b600060405180830381600087803b1580156200245957600080fd5b505af11580156200246e573d6000803e3d6000fd5b505050506001600160a01b0382166000908152609b60205260409020805460ff19166001179055620024a2609c8362003d74565b50846001600160a01b0316826001600160a01b03167f1c73dbd6259eae88a71a197a742361367d2811051b3de2b22953065b876247af88604051620024e891906200485c565b60405180910390a35050600160655550505050565b6033546001600160a01b0316331480620025215750609e546001600160a01b031633145b620025405760405162461bcd60e51b8152600401620006c19062004970565b60026065541415620025665760405162461bcd60e51b8152600401620006c19062004a8b565b600260655560016001600160a01b0382166000908152609b602052604090205460ff166003811115620025a957634e487b7160e01b600052602160045260246000fd5b146200261e5760405162461bcd60e51b815260206004820152603d60248201527f436f6d6d756e69747941646d696e3a3a72656d6f7665436f6d6d756e6974793a60448201527f20746869732069736e277420612076616c696420636f6d6d756e6974790000006064820152608401620006c1565b6001600160a01b038181166000818152609b602052604090819020805460ff19166002179055609f5490516302498d1560e61b8152600481019290925290911690639263454090602401600060405180830381600087803b1580156200268357600080fd5b505af115801562002698573d6000803e3d6000fd5b505050506000816001600160a01b0316630d8e6e2c6040518163ffffffff1660e01b815260040160206040518083038186803b158015620026d857600080fd5b505afa158015620026ed573d6000803e3d6000fd5b505050506040513d601f19601f820116820180604052508101906200271391906200473c565b6001146200279657816001600160a01b031663fc0c546a6040518163ffffffff1660e01b815260040160206040518083038186803b1580156200275557600080fd5b505afa1580156200276a573d6000803e3d6000fd5b505050506040513d601f19601f820116820180604052508101906200279091906200430b565b6200280b565b816001600160a01b0316631fccf6726040518163ffffffff1660e01b815260040160206040518083038186803b158015620027d057600080fd5b505afa158015620027e5573d6000803e3d6000fd5b505050506040513d601f19601f820116820180604052508101906200280b91906200430b565b6098546040516370a0823160e01b81526001600160a01b038581166004830181905293945063beabacc8928592908216918316906370a082319060240160206040518083038186803b1580156200286157600080fd5b505afa15801562002876573d6000803e3d6000fd5b505050506040513d601f19601f820116820180604052508101906200289c91906200473c565b6040518463ffffffff1660e01b8152600401620028bc93929190620048be565b600060405180830381600087803b158015620028d757600080fd5b505af1158015620028ec573d6000803e3d6000fd5b50506040516001600160a01b03851692507fa285b77d62d36ec6881b2cbc019c53874eb061798176f3577f2beab0848d16c69150600090a250506001606555565b6033546001600160a01b0316331480620029515750609e546001600160a01b031633145b620029705760405162461bcd60e51b8152600401620006c19062004970565b6064811015620029f85760405162461bcd60e51b815260206004820152604660248201527f436f6d6d756e69747941646d696e3a3a7570646174654d696e436c61696d416d60448201527f6f756e74526174696f3a20496e76616c6964206d696e436c61696d416d6f756e60648201526574526174696f60d01b608482015260a401620006c1565b60a255565b6033546001600160a01b031633148062002a215750609e546001600160a01b031633145b62002a405760405162461bcd60e51b8152600401620006c19062004970565b60008a511162002aca5760405162461bcd60e51b815260206004820152604860248201527f436f6d6d756e69747941646d696e3a3a616464436f6d6d756e6974793a20436f60448201527f6d6d756e6974792073686f756c642068617665206174206c65617374206f6e656064820152671036b0b730b3b2b960c11b608482015260a401620006c1565b600062002ae28c8c8b8b8b8b8b8b8b8b600062003c7f565b90506001600160a01b03811662002b4c5760405162461bcd60e51b815260206004820152602760248201527f436f6d6d756e69747941646d696e3a3a616464436f6d6d756e6974793a204e4f6044820152661517d59053125160ca1b6064820152608401620006c1565b6001600160a01b0381166000908152609b60205260409020805460ff1916600117905562002b7c609c8262003d74565b50609f54604051630b78037760e21b81526001600160a01b038c81166004830152838116602483015290911690632de00ddc90604401600060405180830381600087803b15801562002bcd57600080fd5b505af115801562002be2573d6000803e3d6000fd5b50505050806001600160a01b03167fd975f7d7350dc54e14ea0400bad2e29483d76cb8810f36f1f520d5c44c1dcf028c8b8b8b8b8b8b8b60405162002c2f98979695949392919062004871565b60405180910390a262002c4381856200399d565b6097546098546040516370a0823160e01b81526001600160a01b03918216600482015266b1a2bc2ec500009291909116906370a082319060240160206040518083038186803b15801562002c9657600080fd5b505afa15801562002cab573d6000803e3d6000fd5b505050506040513d601f19601f8201168201806040525081019062002cd191906200473c565b1062001685576098546097548c516001600160a01b039283169263beabacc89216908e9060009062002d1357634e487b7160e01b600052603260045260246000fd5b602002602001015166b1a2bc2ec500006040518463ffffffff1660e01b815260040162002d4393929190620048be565b600060405180830381600087803b15801562002d5e57600080fd5b505af115801562002d73573d6000803e3d6000fd5b50505050505050505050505050505050565b600080826001600160a01b0316630d8e6e2c6040518163ffffffff1660e01b815260040160206040518083038186803b15801562002dc257600080fd5b505afa15801562002dd7573d6000803e3d6000fd5b505050506040513d601f19601f8201168201806040525081019062002dfd91906200473c565b60011462002e8057826001600160a01b031663fc0c546a6040518163ffffffff1660e01b815260040160206040518083038186803b15801562002e3f57600080fd5b505afa15801562002e54573d6000803e3d6000fd5b505050506040513d601f19601f8201168201806040525081019062002e7a91906200430b565b62002ef5565b826001600160a01b0316631fccf6726040518163ffffffff1660e01b815260040160206040518083038186803b15801562002eba57600080fd5b505afa15801562002ecf573d6000803e3d6000fd5b505050506040513d601f19601f8201168201806040525081019062002ef591906200430b565b6040516370a0823160e01b81526001600160a01b0385811660048301529192506000918316906370a082319060240160206040518083038186803b15801562002f3d57600080fd5b505afa15801562002f52573d6000803e3d6000fd5b505050506040513d601f19601f8201168201806040525081019062002f7891906200473c565b90506000846001600160a01b031663dd4414bb6040518163ffffffff1660e01b815260040160206040518083038186803b15801562002fb657600080fd5b505afa15801562002fcb573d6000803e3d6000fd5b505050506040513d601f19601f8201168201806040525081019062002ff191906200473c565b90506000856001600160a01b0316632b2711176040518163ffffffff1660e01b815260040160206040518083038186803b1580156200302f57600080fd5b505afa15801562003044573d6000803e3d6000fd5b505050506040513d601f19601f820116820180604052508101906200306a91906200473c565b90508183101580620031715750856001600160a01b0316630e5b7c536040518163ffffffff1660e01b815260040160206040518083038186803b158015620030b157600080fd5b505afa158015620030c6573d6000803e3d6000fd5b505050506040513d601f19601f82011682018060405250810190620030ec91906200473c565b866001600160a01b03166309c338c36040518163ffffffff1660e01b815260040160206040518083038186803b1580156200312657600080fd5b505afa1580156200313b573d6000803e3d6000fd5b505050506040513d601f19601f820116820180604052508101906200316191906200473c565b6200316d919062004af6565b4311155b80620031fe575060a4546098546040516370a0823160e01b81526001600160a01b039182166004820152908616906370a082319060240160206040518083038186803b158015620031c157600080fd5b505afa158015620031d6573d6000803e3d6000fd5b505050506040513d601f19601f82011682018060405250810190620031fc91906200473c565b105b8062003208575080155b156200321a5750600095945050505050565b6000866001600160a01b031663431a801a6040518163ffffffff1660e01b815260040160206040518083038186803b1580156200325657600080fd5b505afa1580156200326b573d6000803e3d6000fd5b505050506040513d601f19601f820116820180604052508101906200329191906200473c565b905060006003886001600160a01b0316630d8e6e2c6040518163ffffffff1660e01b815260040160206040518083038186803b158015620032d157600080fd5b505afa158015620032e6573d6000803e3d6000fd5b505050506040513d601f19601f820116820180604052508101906200330c91906200473c565b10156200338e57876001600160a01b031663830953ab6040518163ffffffff1660e01b815260040160206040518083038186803b1580156200334d57600080fd5b505afa15801562003362573d6000803e3d6000fd5b505050506040513d601f19601f820116820180604052508101906200338891906200473c565b62003403565b876001600160a01b031663fb7b0a0c6040518163ffffffff1660e01b815260040160206040518083038186803b158015620033c857600080fd5b505afa158015620033dd573d6000803e3d6000fd5b505050506040513d601f19601f820116820180604052508101906200340391906200473c565b9050600062003413828462004b32565b905083811115620034215750825b600086821115620034ee5762003438878362004b54565b60a3546098546040516370a0823160e01b81526001600160a01b039182166004820152929350600092606492918c16906370a082319060240160206040518083038186803b1580156200348a57600080fd5b505afa1580156200349f573d6000803e3d6000fd5b505050506040513d601f19601f82011682018060405250810190620034c591906200473c565b620034d1919062004b32565b620034dd919062004b11565b905080821115620034ec578091505b505b9998505050505050505050565b6033546001600160a01b03163314620035285760405162461bcd60e51b8152600401620006c190620049c0565b600260655414156200354e5760405162461bcd60e51b8152600401620006c19062004a8b565b6002606555620035696001600160a01b038416838362003e5d565b816001600160a01b0316836001600160a01b03167f9b035625e569d1d2bf54830a290aefba7ab11610ba8490871dc62b86b63a895683604051620035af91815260200190565b60405180910390a35050600160655550565b6033546001600160a01b0316331480620035e55750609e546001600160a01b031633145b620036045760405162461bcd60e51b8152600401620006c19062004970565b60a455565b6033546001600160a01b03163314806200362d5750609e546001600160a01b031633145b6200364c5760405162461bcd60e51b8152600401620006c19062004970565b6000811180156200365d5750606581105b620036ea5760405162461bcd60e51b815260206004820152605060248201527f436f6d6d756e69747941646d696e3a3a7570646174655472656173757279536160448201527f6665747950657263656e746167653a20496e76616c696420747265617375727960648201526f53616665747950657263656e7461676560801b608482015260a401620006c1565b60a355565b6033546001600160a01b031633146200371c5760405162461bcd60e51b8152600401620006c190620049c0565b609e546040516001600160a01b038084169216907feb64427276ab0ae1551ebf3002b4c3b44251a38b60c5d25daa1dad4e05876cc490600090a3609e80546001600160a01b0319166001600160a01b0392909216919091179055565b6033546001600160a01b03163314620037a55760405162461bcd60e51b8152600401620006c190620049c0565b6099546040516001600160a01b038084169216907f0c6ac7336660be2921bd3e55b4c1013a87f9910af2d753f099453a0ea160915a90600090a3609980546001600160a01b0319166001600160a01b0392909216919091179055565b60006200380f609c62003eb1565b905090565b6033546001600160a01b03163314620038415760405162461bcd60e51b8152600401620006c190620049c0565b6001600160a01b038116620038a85760405162461bcd60e51b815260206004820152602660248201527f4f776e61626c653a206e6577206f776e657220697320746865207a65726f206160448201526564647265737360d01b6064820152608401620006c1565b620038b38162003e0b565b50565b6033546001600160a01b0316331480620038da5750609e546001600160a01b031633145b620038f95760405162461bcd60e51b8152600401620006c19062004970565b60a180546001600160a01b0319166001600160a01b0392909216919091179055565b609a546040516310270e3d60e11b81526001600160a01b038381166004830152600092169063204e1c7a9060240160206040518083038186803b1580156200396257600080fd5b505afa15801562003977573d6000803e3d6000fd5b505050506040513d601f19601f820116820180604052508101906200137a91906200430b565b60026065541415620039c35760405162461bcd60e51b8152600401620006c19062004a8b565b60026065819055506000826001600160a01b0316630d8e6e2c6040518163ffffffff1660e01b815260040160206040518083038186803b15801562003a0757600080fd5b505afa15801562003a1c573d6000803e3d6000fd5b505050506040513d601f19601f8201168201806040525081019062003a4291906200473c565b60011462003ac557826001600160a01b031663fc0c546a6040518163ffffffff1660e01b815260040160206040518083038186803b15801562003a8457600080fd5b505afa15801562003a99573d6000803e3d6000fd5b505050506040513d601f19601f8201168201806040525081019062003abf91906200430b565b62003b3a565b826001600160a01b0316631fccf6726040518163ffffffff1660e01b815260040160206040518083038186803b15801562003aff57600080fd5b505afa15801562003b14573d6000803e3d6000fd5b505050506040513d601f19601f8201168201806040525081019062003b3a91906200430b565b6098546040516370a0823160e01b81526001600160a01b0391821660048201529192508391908316906370a082319060240160206040518083038186803b15801562003b8557600080fd5b505afa15801562003b9a573d6000803e3d6000fd5b505050506040513d601f19601f8201168201806040525081019062003bc091906200473c565b1062003c75576098546040516317d5759960e31b81526001600160a01b039091169063beabacc89062003bfc90849087908790600401620048be565b600060405180830381600087803b15801562003c1757600080fd5b505af115801562003c2c573d6000803e3d6000fd5b50505050826001600160a01b03167f1e951788684f9b9e5c219261ce05daaa0f58ead974c796e6311b1da4c8657af18360405162003c6c91815260200190565b60405180910390a25b5050600160655550565b60a054609a5460405160009283926001600160a01b039182169291169062003ca79062004247565b6001600160a01b03928316815291166020820152606060408201819052600090820152608001604051809103906000f08015801562003cea573d6000803e3d6000fd5b509050806001600160a01b0316630b4e78178e8e8e8e8e8e8e8e8e8e8e6040518c63ffffffff1660e01b815260040162003d2f9b9a99989796959493929190620047e6565b600060405180830381600087803b15801562003d4a57600080fd5b505af115801562003d5f573d6000803e3d6000fd5b50929f9e505050505050505050505050505050565b6000620018cd836001600160a01b03841662003ebc565b6000620018cd838362003f0e565b600054610100900460ff1662003dc35760405162461bcd60e51b8152600401620006c19062004a40565b62003dcd62003f47565b62001a3062003f71565b600054610100900460ff1662003e015760405162461bcd60e51b8152600401620006c19062004a40565b62001a3062003fa6565b603380546001600160a01b038381166001600160a01b0319831681179093556040519116919082907f8be0079c531659141344cd1fd0a4f28419497f9722a3daafe3b4186f6b6457e090600090a35050565b604080516001600160a01b038416602482015260448082018490528251808303909101815260649091019091526020810180516001600160e01b031663a9059cbb60e01b1790526200154a90849062003fd7565b60006200137a825490565b600081815260018301602052604081205462003f05575081546001818101845560008481526020808220909301849055845484825282860190935260409020919091556200137a565b5060006200137a565b600082600001828154811062003f3457634e487b7160e01b600052603260045260246000fd5b9060005260206000200154905092915050565b600054610100900460ff1662001a305760405162461bcd60e51b8152600401620006c19062004a40565b600054610100900460ff1662003f9b5760405162461bcd60e51b8152600401620006c19062004a40565b62001a303362003e0b565b600054610100900460ff1662003fd05760405162461bcd60e51b8152600401620006c19062004a40565b6001606555565b60006200402e826040518060400160405280602081526020017f5361666545524332303a206c6f772d6c6576656c2063616c6c206661696c6564815250856001600160a01b0316620040b09092919063ffffffff16565b8051909150156200154a57808060200190518101906200404f919062004478565b6200154a5760405162461bcd60e51b815260206004820152602a60248201527f5361666545524332303a204552433230206f7065726174696f6e20646964206e6044820152691bdd081cdd58d8d9595960b21b6064820152608401620006c1565b6060620040c18484600085620040c9565b949350505050565b6060824710156200412c5760405162461bcd60e51b815260206004820152602660248201527f416464726573733a20696e73756666696369656e742062616c616e636520666f6044820152651c8818d85b1b60d21b6064820152608401620006c1565b843b6200417c5760405162461bcd60e51b815260206004820152601d60248201527f416464726573733a2063616c6c20746f206e6f6e2d636f6e74726163740000006044820152606401620006c1565b600080866001600160a01b031685876040516200419a9190620047c8565b60006040518083038185875af1925050503d8060008114620041d9576040519150601f19603f3d011682016040523d82523d6000602084013e620041de565b606091505b5091509150620041f0828286620041fb565b979650505050505050565b606083156200420c575081620018cd565b8251156200421d5782518084602001fd5b8160405162461bcd60e51b8152600401620006c191906200495b565b6107978062004bfe83390190565b610f2f806200539583390190565b600082601f83011262004266578081fd5b8135602067ffffffffffffffff82111562004285576200428562004bd1565b8160051b6200429682820162004ac2565b838152828101908684018388018501891015620042b1578687fd5b8693505b85841015620042e0578035620042cb8162004be7565b835260019390930192918401918401620042b5565b50979650505050505050565b600060208284031215620042fe578081fd5b8135620018cd8162004be7565b6000602082840312156200431d578081fd5b8151620018cd8162004be7565b600080604083850312156200433d578081fd5b82356200434a8162004be7565b915060208301356200435c8162004be7565b809150509250929050565b60008060008060008060008060008060006101608c8e03121562004389578687fd5b8b35620043968162004be7565b9a5060208c013567ffffffffffffffff811115620043b2578788fd5b620043c08e828f0162004255565b9a505060408c0135620043d38162004be7565b9a9d999c50999a60608101359a5060808101359960a0820135995060c0820135985060e0820135975061010082013596506101208201359550610140909101359350915050565b600080604083850312156200433d578182fd5b6000806040838503121562004440578182fd5b823567ffffffffffffffff81111562004457578283fd5b620044658582860162004255565b92505060208301356200435c8162004be7565b6000602082840312156200448a578081fd5b81518015158114620018cd578182fd5b60008060008060808587031215620044b0578182fd5b8435620044bd8162004be7565b93506020850135620044cf8162004be7565b92506040850135620044e18162004be7565b9396929550929360600135925050565b600080600080600080600080610100898b0312156200450e578182fd5b88356200451b8162004be7565b97506020898101356200452e8162004be7565b975060408a013567ffffffffffffffff808211156200454b578485fd5b818c0191508c601f8301126200455f578485fd5b81358181111562004574576200457462004bd1565b62004588601f8201601f1916850162004ac2565b91508082528d848285010111156200459e578586fd5b8084840185840137810190920193909352979a96995096976060810135975060808101359660a0820135965060c0820135955060e0909101359350915050565b60008060008060808587031215620045f4578182fd5b8435620046018162004be7565b93506020850135925060408501356200461a8162004be7565b9150606085013567ffffffffffffffff81111562004636578182fd5b620046448782880162004255565b91505092959194509250565b60008060006060848603121562004665578081fd5b8335620046728162004be7565b95602085013595506040909401359392505050565b600080600080600080600060e0888a031215620046a2578081fd5b8735620046af8162004be7565b9960208901359950604089013598606081013598506080810135975060a0810135965060c00135945092505050565b600080600060608486031215620046f3578081fd5b8335620047008162004be7565b92506020840135620047128162004be7565b929592945050506040919091013590565b60006020828403121562004735578081fd5b5035919050565b6000602082840312156200474e578081fd5b5051919050565b6000815180845260208085019450808401835b838110156200478f5781516001600160a01b03168752958201959082019060010162004768565b509495945050505050565b60008151808452620047b481602086016020860162004b6e565b601f01601f19169290920160200192915050565b60008251620047dc81846020870162004b6e565b9190910192915050565b6001600160a01b038c81168252610160602083018190526000916200480e8483018f62004755565b604085019d909d52606084019b909b525050608081019790975260a087019590955260c086019390935260e08501919091526101008401526101208301529091166101409091015292915050565b602081526000620018cd602083018462004755565b6000610100808352620048878184018c62004755565b602084019a909a52505060408101969096526060860194909452608085019290925260a084015260c083015260e090910152919050565b6001600160a01b039384168152919092166020820152604081019190915260600190565b6001600160a01b038816815260e06020820181905260009062004908908301896200479a565b6040830197909752506060810194909452608084019290925260a083015260c09091015292915050565b60208101600483106200495557634e487b7160e01b600052602160045260246000fd5b91905290565b602081526000620018cd60208301846200479a565b60208082526030908201527f436f6d6d756e69747941646d696e3a204e6f74204f776e6572204f7220496d7060408201526f1858dd13585c9ad95d10dbdd5b98da5b60821b606082015260800190565b6020808252818101527f4f776e61626c653a2063616c6c6572206973206e6f7420746865206f776e6572604082015260600190565b6020808252602b908201527f436f6d6d756e69747941646d696e3a3a6d696772617465436f6d6d756e69747960408201526a0e881393d517d59053125160aa1b606082015260800190565b6020808252602b908201527f496e697469616c697a61626c653a20636f6e7472616374206973206e6f74206960408201526a6e697469616c697a696e6760a81b606082015260800190565b6020808252601f908201527f5265656e7472616e637947756172643a207265656e7472616e742063616c6c00604082015260600190565b604051601f8201601f1916810167ffffffffffffffff8111828210171562004aee5762004aee62004bd1565b604052919050565b6000821982111562004b0c5762004b0c62004bbb565b500190565b60008262004b2d57634e487b7160e01b81526012600452602481fd5b500490565b600081600019048311821515161562004b4f5762004b4f62004bbb565b500290565b60008282101562004b695762004b6962004bbb565b500390565b60005b8381101562004b8b57818101518382015260200162004b71565b8381111562004b9b576000848401525b50505050565b60008162004bb35762004bb362004bbb565b506000190190565b634e487b7160e01b600052601160045260246000fd5b634e487b7160e01b600052604160045260246000fd5b6001600160a01b0381168114620038b357600080fdfe608060405234801561001057600080fd5b5061001a3361001f565b61006f565b600080546001600160a01b038381166001600160a01b0319831681178455604051919092169283917f8be0079c531659141344cd1fd0a4f28419497f9722a3daafe3b4186f6b6457e09190a35050565b6107198061007e6000396000f3fe60806040526004361061007b5760003560e01c80639623609d1161004e5780639623609d1461011157806399a88ec414610124578063f2fde38b14610144578063f3b7dead1461016457600080fd5b8063204e1c7a14610080578063715018a6146100bc5780637eff275e146100d35780638da5cb5b146100f3575b600080fd5b34801561008c57600080fd5b506100a061009b3660046104d8565b610184565b6040516001600160a01b03909116815260200160405180910390f35b3480156100c857600080fd5b506100d1610215565b005b3480156100df57600080fd5b506100d16100ee366004610517565b610254565b3480156100ff57600080fd5b506000546001600160a01b03166100a0565b6100d161011f36600461054f565b6102de565b34801561013057600080fd5b506100d161013f366004610517565b61036f565b34801561015057600080fd5b506100d161015f3660046104d8565b6103c7565b34801561017057600080fd5b506100a061017f3660046104d8565b610462565b6000806000836001600160a01b03166040516101aa90635c60da1b60e01b815260040190565b600060405180830381855afa9150503d80600081146101e5576040519150601f19603f3d011682016040523d82523d6000602084013e6101ea565b606091505b5091509150816101f957600080fd5b8080602001905181019061020d91906104fb565b949350505050565b6000546001600160a01b031633146102485760405162461bcd60e51b815260040161023f90610683565b60405180910390fd5b6102526000610488565b565b6000546001600160a01b0316331461027e5760405162461bcd60e51b815260040161023f90610683565b6040516308f2839760e41b81526001600160a01b038281166004830152831690638f283970906024015b600060405180830381600087803b1580156102c257600080fd5b505af11580156102d6573d6000803e3d6000fd5b505050505050565b6000546001600160a01b031633146103085760405162461bcd60e51b815260040161023f90610683565b60405163278f794360e11b81526001600160a01b03841690634f1ef2869034906103389086908690600401610620565b6000604051808303818588803b15801561035157600080fd5b505af1158015610365573d6000803e3d6000fd5b5050505050505050565b6000546001600160a01b031633146103995760405162461bcd60e51b815260040161023f90610683565b604051631b2ce7f360e11b81526001600160a01b038281166004830152831690633659cfe6906024016102a8565b6000546001600160a01b031633146103f15760405162461bcd60e51b815260040161023f90610683565b6001600160a01b0381166104565760405162461bcd60e51b815260206004820152602660248201527f4f776e61626c653a206e6577206f776e657220697320746865207a65726f206160448201526564647265737360d01b606482015260840161023f565b61045f81610488565b50565b6000806000836001600160a01b03166040516101aa906303e1469160e61b815260040190565b600080546001600160a01b038381166001600160a01b0319831681178455604051919092169283917f8be0079c531659141344cd1fd0a4f28419497f9722a3daafe3b4186f6b6457e09190a35050565b6000602082840312156104e9578081fd5b81356104f4816106ce565b9392505050565b60006020828403121561050c578081fd5b81516104f4816106ce565b60008060408385031215610529578081fd5b8235610534816106ce565b91506020830135610544816106ce565b809150509250929050565b600080600060608486031215610563578081fd5b833561056e816106ce565b9250602084013561057e816106ce565b9150604084013567ffffffffffffffff8082111561059a578283fd5b818601915086601f8301126105ad578283fd5b8135818111156105bf576105bf6106b8565b604051601f8201601f19908116603f011681019083821181831017156105e7576105e76106b8565b816040528281528960208487010111156105ff578586fd5b82602086016020830137856020848301015280955050505050509250925092565b60018060a01b0383168152600060206040818401528351806040850152825b8181101561065b5785810183015185820160600152820161063f565b8181111561066c5783606083870101525b50601f01601f191692909201606001949350505050565b6020808252818101527f4f776e61626c653a2063616c6c6572206973206e6f7420746865206f776e6572604082015260600190565b634e487b7160e01b600052604160045260246000fd5b6001600160a01b038116811461045f57600080fdfea2646970667358221220e38caf5ca305d28cfea5924808a41fd6f9ab62ed165ed1becf8858d95ea882a264736f6c63430008040033608060405260405162000f2f38038062000f2f8339810160408190526200002691620004da565b82816200005560017f360894a13ba1a3210667c828492db98dca3e2076cc3735a920a3ca505d382bbd62000609565b60008051602062000ee8833981519152146200008157634e487b7160e01b600052600160045260246000fd5b6200008f82826000620000ff565b50620000bf905060017fb53127684a568b3173ae13b9f8a6016e243e63b6e8ee1178d6a717850b5d610462000609565b60008051602062000ec883398151915214620000eb57634e487b7160e01b600052600160045260246000fd5b620000f6826200013c565b50505062000672565b6200010a8362000197565b600082511180620001185750805b156200013757620001358383620001d960201b620002601760201c565b505b505050565b7f7e644d79422f17c01e4894b5f4f588d331ebfa28653d42ae832dc59e38c9798f6200016762000208565b604080516001600160a01b03928316815291841660208301520160405180910390a1620001948162000241565b50565b620001a281620002f6565b6040516001600160a01b038216907fbc7cd75a20ee27fd9adebab32041f755214dbc6bffa90cc0225b39da2e5c2d3b90600090a250565b606062000201838360405180606001604052806027815260200162000f086027913962000399565b9392505050565b60006200023260008051602062000ec883398151915260001b6200047660201b620002081760201c565b546001600160a01b0316919050565b6001600160a01b038116620002ac5760405162461bcd60e51b815260206004820152602660248201527f455243313936373a206e65772061646d696e20697320746865207a65726f206160448201526564647265737360d01b60648201526084015b60405180910390fd5b80620002d560008051602062000ec883398151915260001b6200047660201b620002081760201c565b80546001600160a01b0319166001600160a01b039290921691909117905550565b6200030c816200047960201b6200028c1760201c565b620003705760405162461bcd60e51b815260206004820152602d60248201527f455243313936373a206e657720696d706c656d656e746174696f6e206973206e60448201526c1bdd08184818dbdb9d1c9858dd609a1b6064820152608401620002a3565b80620002d560008051602062000ee883398151915260001b6200047660201b620002081760201c565b6060833b620003fa5760405162461bcd60e51b815260206004820152602660248201527f416464726573733a2064656c65676174652063616c6c20746f206e6f6e2d636f6044820152651b9d1c9858dd60d21b6064820152608401620002a3565b600080856001600160a01b031685604051620004179190620005b6565b600060405180830381855af49150503d806000811462000454576040519150601f19603f3d011682016040523d82523d6000602084013e62000459565b606091505b5090925090506200046c8282866200047f565b9695505050505050565b90565b3b151590565b606083156200049057508162000201565b825115620004a15782518084602001fd5b8160405162461bcd60e51b8152600401620002a39190620005d4565b80516001600160a01b0381168114620004d557600080fd5b919050565b600080600060608486031215620004ef578283fd5b620004fa84620004bd565b92506200050a60208501620004bd565b60408501519092506001600160401b038082111562000527578283fd5b818601915086601f8301126200053b578283fd5b8151818111156200055057620005506200065c565b604051601f8201601f19908116603f011681019083821181831017156200057b576200057b6200065c565b8160405282815289602084870101111562000594578586fd5b620005a78360208301602088016200062d565b80955050505050509250925092565b60008251620005ca8184602087016200062d565b9190910192915050565b6020815260008251806020840152620005f58160408501602087016200062d565b601f01601f19169190910160400192915050565b6000828210156200062857634e487b7160e01b81526011600452602481fd5b500390565b60005b838110156200064a57818101518382015260200162000630565b83811115620001355750506000910152565b634e487b7160e01b600052604160045260246000fd5b61084680620006826000396000f3fe60806040526004361061004e5760003560e01c80633659cfe6146100655780634f1ef286146100855780635c60da1b146100985780638f283970146100c9578063f851a440146100e95761005d565b3661005d5761005b6100fe565b005b61005b6100fe565b34801561007157600080fd5b5061005b6100803660046106d6565b610118565b61005b6100933660046106f0565b61015f565b3480156100a457600080fd5b506100ad6101d0565b6040516001600160a01b03909116815260200160405180910390f35b3480156100d557600080fd5b5061005b6100e43660046106d6565b61020b565b3480156100f557600080fd5b506100ad610235565b610106610292565b610116610111610331565b61033b565b565b61012061035f565b6001600160a01b0316336001600160a01b031614156101575761015481604051806020016040528060008152506000610392565b50565b6101546100fe565b61016761035f565b6001600160a01b0316336001600160a01b031614156101c8576101c38383838080601f01602080910402602001604051908101604052809392919081815260200183838082843760009201919091525060019250610392915050565b505050565b6101c36100fe565b60006101da61035f565b6001600160a01b0316336001600160a01b03161415610200576101fb610331565b905090565b6102086100fe565b90565b61021361035f565b6001600160a01b0316336001600160a01b0316141561015757610154816103bd565b600061023f61035f565b6001600160a01b0316336001600160a01b03161415610200576101fb61035f565b606061028583836040518060600160405280602781526020016107ea60279139610411565b9392505050565b3b151590565b61029a61035f565b6001600160a01b0316336001600160a01b031614156101165760405162461bcd60e51b815260206004820152604260248201527f5472616e73706172656e745570677261646561626c6550726f78793a2061646d60448201527f696e2063616e6e6f742066616c6c6261636b20746f2070726f78792074617267606482015261195d60f21b608482015260a4015b60405180910390fd5b60006101fb6104e5565b3660008037600080366000845af43d6000803e80801561035a573d6000f35b3d6000fd5b60007fb53127684a568b3173ae13b9f8a6016e243e63b6e8ee1178d6a717850b5d61035b546001600160a01b0316919050565b61039b8361050d565b6000825111806103a85750805b156101c3576103b78383610260565b50505050565b7f7e644d79422f17c01e4894b5f4f588d331ebfa28653d42ae832dc59e38c9798f6103e661035f565b604080516001600160a01b03928316815291841660208301520160405180910390a16101548161054d565b6060833b6104705760405162461bcd60e51b815260206004820152602660248201527f416464726573733a2064656c65676174652063616c6c20746f206e6f6e2d636f6044820152651b9d1c9858dd60d21b6064820152608401610328565b600080856001600160a01b03168560405161048b919061076e565b600060405180830381855af49150503d80600081146104c6576040519150601f19603f3d011682016040523d82523d6000602084013e6104cb565b606091505b50915091506104db8282866105f6565b9695505050505050565b60007f360894a13ba1a3210667c828492db98dca3e2076cc3735a920a3ca505d382bbc610383565b6105168161062f565b6040516001600160a01b038216907fbc7cd75a20ee27fd9adebab32041f755214dbc6bffa90cc0225b39da2e5c2d3b90600090a250565b6001600160a01b0381166105b25760405162461bcd60e51b815260206004820152602660248201527f455243313936373a206e65772061646d696e20697320746865207a65726f206160448201526564647265737360d01b6064820152608401610328565b807fb53127684a568b3173ae13b9f8a6016e243e63b6e8ee1178d6a717850b5d61035b80546001600160a01b0319166001600160a01b039290921691909117905550565b60608315610605575081610285565b8251156106155782518084602001fd5b8160405162461bcd60e51b8152600401610328919061078a565b803b6106935760405162461bcd60e51b815260206004820152602d60248201527f455243313936373a206e657720696d706c656d656e746174696f6e206973206e60448201526c1bdd08184818dbdb9d1c9858dd609a1b6064820152608401610328565b807f360894a13ba1a3210667c828492db98dca3e2076cc3735a920a3ca505d382bbc6105d5565b80356001600160a01b03811681146106d157600080fd5b919050565b6000602082840312156106e7578081fd5b610285826106ba565b600080600060408486031215610704578182fd5b61070d846106ba565b9250602084013567ffffffffffffffff80821115610729578384fd5b818601915086601f83011261073c578384fd5b81358181111561074a578485fd5b87602082850101111561075b578485fd5b6020830194508093505050509250925092565b600082516107808184602087016107bd565b9190910192915050565b60208152600082518060208401526107a98160408501602087016107bd565b601f01601f19169190910160400192915050565b60005b838110156107d85781810151838201526020016107c0565b838111156103b7575050600091015256fe416464726573733a206c6f772d6c6576656c2064656c65676174652063616c6c206661696c6564a2646970667358221220675814b80ddcb309746b9826ddefd683cc86b7ea3c0b94e9b1325c4b1e1cb1a764736f6c63430008040033b53127684a568b3173ae13b9f8a6016e243e63b6e8ee1178d6a717850b5d6103360894a13ba1a3210667c828492db98dca3e2076cc3735a920a3ca505d382bbc416464726573733a206c6f772d6c6576656c2064656c65676174652063616c6c206661696c6564a2646970667358221220b482d830862622b50e1f0713c299dddb969254c92d5b793e3d07c65a0bd493a364736f6c63430008040033",
  "linkReferences": {},
  "deployedLinkReferences": {}
}